{"abi":[{"type":"constructor","inputs":[{"name":"_router","type":"address","internalType":"address"},{"name":"_protocolWallet","type":"address","internalType":"address"}],"stateMutability":"nonpayable"},{"type":"function","name":"BASIS_POINTS","inputs":[],"outputs":[{"name":"","type":"uint256","internalType":"uint256"}],"stateMutability":"view"},{"type":"function","name":"BURN_FEE","inputs":[],"outputs":[{"name":"","type":"uint256","internalType":"uint256"}],"stateMutability":"view"},{"type":"function","name":"CALLER_FEE","inputs":[],"outputs":[{"name":"","type":"uint256","internalType":"uint256"}],"stateMutability":"view"},{"type":"function","name":"CREATOR_FEE","inputs":[],"outputs":[{"name":"","type":"uint256","internalType":"uint256"}],"stateMutability":"view"},{"type":"function","name":"PROTOCOL_FEE","inputs":[],"outputs":[{"name":"","type":"uint256","internalType":"uint256"}],"stateMutability":"view"},{"type":"function","name":"burn","inputs":[{"name":"token","type":"address","internalType":"address"},{"name":"tokenAmount","type":"uint256","internalType":"uint256"},{"name":"minEthOut","type":"uint256","internalType":"uint256"}],"outputs":[],"stateMutability":"nonpayable"},{"type":"function","name":"calculatePrice","inputs":[{"name":"token","type":"address","internalType":"address"},{"name":"t","type":"uint256","internalType":"uint256"}],"outputs":[{"name":"","type":"uint256","internalType":"uint256"}],"stateMutability":"view"},{"type":"function","name":"collectedETH","inputs":[{"name":"","type":"address","internalType":"address"}],"outputs":[{"name":"","type":"uint256","internalType":"uint256"}],"stateMutability":"view"},{"type":"function","name":"createToken","inputs":[{"name":"name","type":"string","internalType":"string"},{"name":"symbol","type":"string","internalType":"string"},{"name":"maxSupply","type":"uint256","internalType":"uint256"},{"name":"pricePoints","type":"uint64[4]","internalType":"uint64[4]"},{"name":"salt","type":"bytes32","internalType":"bytes32"},{"name":"metadata","type":"bytes","internalType":"bytes"}],"outputs":[{"name":"","type":"address","internalType":"address"}],"stateMutability":"nonpayable"},{"type":"function","name":"createUniswapMarket","inputs":[{"name":"token","type":"address","internalType":"address"}],"outputs":[],"stateMutability":"nonpayable"},{"type":"function","name":"meta","inputs":[{"name":"","type":"address","internalType":"address"}],"outputs":[{"name":"","type":"address","internalType":"address"}],"stateMutability":"view"},{"type":"function","name":"mint","inputs":[{"name":"token","type":"address","internalType":"address"},{"name":"minTokensOut","type":"uint256","internalType":"uint256"}],"outputs":[],"stateMutability":"payable"},{"type":"function","name":"pointsMap","inputs":[{"name":"","type":"address","internalType":"address"}],"outputs":[{"name":"","type":"uint256","internalType":"uint256"}],"stateMutability":"view"},{"type":"function","name":"predictTokenAddress","inputs":[{"name":"salt","type":"bytes32","internalType":"bytes32"}],"outputs":[{"name":"predictedAddress","type":"address","internalType":"address"},{"name":"isDeployed","type":"bool","internalType":"bool"}],"stateMutability":"view"},{"type":"function","name":"protocolWallet","inputs":[],"outputs":[{"name":"","type":"address","internalType":"address"}],"stateMutability":"view"},{"type":"function","name":"readTokenCreator","inputs":[{"name":"token","type":"address","internalType":"address"}],"outputs":[{"name":"","type":"address","internalType":"address"}],"stateMutability":"view"},{"type":"function","name":"readTokenMetadata","inputs":[{"name":"token","type":"address","internalType":"address"}],"outputs":[{"name":"","type":"bytes","internalType":"bytes"}],"stateMutability":"view"},{"type":"function","name":"uniswapRouter","inputs":[],"outputs":[{"name":"","type":"address","internalType":"contract IUniswapV2Router02"}],"stateMutability":"view"},{"type":"event","name":"TokenCreated","inputs":[{"name":"tokenAddress","type":"address","indexed":true,"internalType":"address"},{"name":"name","type":"string","indexed":false,"internalType":"string"},{"name":"symbol","type":"string","indexed":false,"internalType":"string"},{"name":"maxSupply","type":"uint256","indexed":false,"internalType":"uint256"},{"name":"pricePoints","type":"uint64[4]","indexed":false,"internalType":"uint64[4]"}],"anonymous":false},{"type":"event","name":"TokensPurchased","inputs":[{"name":"token","type":"address","indexed":true,"internalType":"address"},{"name":"Minter","type":"address","indexed":true,"internalType":"address"},{"name":"amount","type":"uint256","indexed":false,"internalType":"uint256"},{"name":"ethSpent","type":"uint256","indexed":false,"internalType":"uint256"}],"anonymous":false},{"type":"event","name":"TokensSold","inputs":[{"name":"token","type":"address","indexed":true,"internalType":"address"},{"name":"Minter","type":"address","indexed":true,"internalType":"address"},{"name":"amount","type":"uint256","indexed":false,"internalType":"uint256"},{"name":"ethSpent","type":"uint256","indexed":false,"internalType":"uint256"}],"anonymous":false},{"type":"event","name":"UniswapMarketCreated","inputs":[{"name":"token","type":"address","indexed":true,"internalType":"address"}],"anonymous":false},{"type":"error","name":"CurveNotCompleted","inputs":[]},{"type":"error","name":"DeploymentFailed","inputs":[]},{"type":"error","name":"ETHTransferFailed","inputs":[]},{"type":"error","name":"InsufficientBalance","inputs":[]},{"type":"error","name":"InsufficientLiquidity","inputs":[]},{"type":"error","name":"InsufficientPayment","inputs":[]},{"type":"error","name":"InvalidAmount","inputs":[]},{"type":"error","name":"InvalidInput","inputs":[]},{"type":"error","name":"InvalidPricePoints","inputs":[]},{"type":"error","name":"MaxSupplyReached","inputs":[]},{"type":"error","name":"Reentrancy","inputs":[]},{"type":"error","name":"SlippageExceeded","inputs":[]},{"type":"error","name":"TokenExists","inputs":[]},{"type":"error","name":"TokenNotFound","inputs":[]}],"bytecode":{"object":"0x60c06040523480156200001157600080fd5b506040516200356a3803806200356a8339810160408190526200003491620000a6565b6001600160a01b03821615806200005257506001600160a01b038116155b15620000715760405163b4fa3fb360e01b815260040160405180910390fd5b6001600160a01b0391821660a05216608052620000de565b80516001600160a01b0381168114620000a157600080fd5b919050565b60008060408385031215620000ba57600080fd5b620000c58362000089565b9150620000d56020840162000089565b90509250929050565b60805160a05161344362000127600039600081816102f801528181610e3e01528181610ed901526110a601526000818161013801528181610d740152611bf401526134436000f3fe6080604052600436106200011f5760003560e01c806363e8fe6c11620000a1578063dd7daad9116200006c578063dd7daad9146200033f578063e021deff1462000373578063e1f1c4a714620003ad578063f5298aca14620003c5578063ffb623df14620003ea57600080fd5b806363e8fe6c146200029657806364a4f07814620002c7578063735de9f714620002e4578063aa780f6e146200031a57600080fd5b8063244c935411620000ee578063244c935414620001e55780632f7306b814620002165780633d88f257146200023b57806340c10f191462000262578063480df058146200027957600080fd5b806306d6e63f14620001245780630b4501fd14620001775780631a7dfa9f14620001a35780631bbbe21714620001c0575b600080fd5b3480156200013157600080fd5b506200015a7f000000000000000000000000000000000000000000000000000000000000000081565b6040516001600160a01b0390911681526020015b60405180910390f35b3480156200018457600080fd5b506200019466071afd498d000081565b6040519081526020016200016e565b348015620001b057600080fd5b506200019466038d7ea4c6800081565b348015620001cd57600080fd5b506200015a620001df36600462001eb7565b6200042f565b348015620001f257600080fd5b50620001946200020436600462001fe1565b60016020526000908152604090205481565b3480156200022357600080fd5b50620001946200023536600462002001565b6200093b565b3480156200024857600080fd5b50620002606200025a36600462001fe1565b62000b5e565b005b620002606200027336600462002001565b620011ce565b3480156200028657600080fd5b5062000194660c6f3b40b6c00081565b348015620002a357600080fd5b5062000194620002b536600462001fe1565b60006020819052908152604090205481565b348015620002d457600080fd5b50620001946601c6bf5263400081565b348015620002f157600080fd5b506200015a7f000000000000000000000000000000000000000000000000000000000000000081565b3480156200032757600080fd5b506200015a6200033936600462001fe1565b620012cb565b3480156200034c57600080fd5b50620003646200035e36600462001fe1565b62001318565b6040516200016e919062002084565b3480156200038057600080fd5b506200015a6200039236600462001fe1565b6002602052600090815260409020546001600160a01b031681565b348015620003ba57600080fd5b506200019461271081565b348015620003d257600080fd5b5062000260620003e436600462002099565b62001367565b348015620003f757600080fd5b506200040f62000409366004620020d1565b62001428565b604080516001600160a01b0390931683529015156020830152016200016e565b60008715806200043d575085155b156200045c5760405163b4fa3fb360e01b815260040160405180910390fd5b670de0b6b3a76400008510806200048257506fffffffffffffffffffffffffffffffff85115b806200049957506200049660028662002101565b15155b15620004b85760405163b4fa3fb360e01b815260040160405180910390fd5b6001620004c960208601866200214b565b6001600160401b0316108015620004fd57506001600160401b03620004f260208601866200214b565b6001600160401b0316145b806200054f575060016200051860408601602087016200214b565b6001600160401b03161080156200054f57506001600160401b036200054460408601602087016200214b565b6001600160401b0316145b80620005a1575060016200056a60608601604087016200214b565b6001600160401b0316108015620005a157506001600160401b036200059660608601604087016200214b565b6001600160401b0316145b80620005f057506001620005bc60808601606087016200214b565b6001600160401b0316108015620005f057506001600160401b03620005e560208601866200214b565b6001600160401b0316145b156200060f5760405163bf8c0e9d60e01b815260040160405180910390fd5b60016200062060208601866200214b565b6001600160401b0316108062000650575060016200064560408601602087016200214b565b6001600160401b0316105b8062000676575060016200066b60608601604087016200214b565b6001600160401b0316105b806200069c575060016200069160808601606087016200214b565b6001600160401b0316105b15620006bb5760405163bf8c0e9d60e01b815260040160405180910390fd5b6000620006c8846200144b565b90506001600160a01b0381163b15620006f457604051632ae3f45d60e11b815260040160405180910390fd5b600062000774604051806020016200070c9062001da2565b601f1982820381018352601f9091011660408190526200073e908e908e908e908e906012908f90309060200162002192565b60408051601f19818403018152908290526200075e9291602001620021e9565b6040516020818303038152906040528662001459565b9050806001600160a01b03163b600003620007a257604051633011642560e01b815260040160405180910390fd5b600060c0620007b86080890160608a016200214b565b6001600160401b0316901b6080620007d760608a0160408b016200214b565b6001600160401b0316901b6040620007f58a820160208c016200214b565b6001600160401b0316901b6200080f60208b018b6200214b565b6001600160401b0316171717905080600080846001600160a01b03166001600160a01b031681526020019081526020016000208190555060006040518060400160405280336001600160a01b03168152602001878152506040516020016200087891906200221c565b6040516020818303038152906040529050620008948162001470565b60026000856001600160a01b03166001600160a01b0316815260200190815260200160002060006101000a8154816001600160a01b0302191690836001600160a01b03160217905550826001600160a01b03167f821f295f5f91f5d819c43f401bac1cf3e59d1e0bd4d10613bee393a4251649fa8e8e8e8e8e8e604051620009229695949392919062002253565b60405180910390a250909b9a5050505050505050505050565b6001600160a01b03821660009081526020819052604081205481036200097457604051630cbdb7b360e41b815260040160405180910390fd5b670de0b6b3a76400008211156200099e5760405163162908e360e11b815260040160405180910390fd5b6000620009ab84620014b5565b602081015181519192506001600160401b039182169116148015620009e45750604081015160208201516001600160401b039081169116145b801562000a055750606081015160408201516001600160401b039081169116145b1562000a335762000a2a633b9aca008260005b60200201516001600160401b03160290565b91505062000b58565b6040805160808101825260008082526020820181905291810182905260608101829052670de0b6b3a7640000859003915b600481101562000abb5762000a8c633b9aca0085836004811062000a185762000a1862002118565b82826004811062000aa15762000aa162002118565b60200201528062000ab281620022e7565b91505062000a64565b50805160009062000adb9062000ad4858181806200150f565b906200150f565b905062000b0d62000b08836001602002015162000ad462000aff8a8289806200150f565b6003906200150f565b820190565b905062000b3162000b08836002602002015162000ad462000aff8a8289826200150f565b905062000b5162000b08836003602002015162000ad4898181806200150f565b9450505050505b92915050565b3068929eee149b4bd21268540362000b7e5763ab143c066000526004601cfd5b3068929eee149b4bd21268556001600160a01b038116600090815260208190526040812054900362000bc357604051630cbdb7b360e41b815260040160405180910390fd5b600081905060006002826001600160a01b031663d5abeb016040518163ffffffff1660e01b8152600401602060405180830381865afa15801562000c0b573d6000803e3d6000fd5b505050506040513d601f19601f8201168201806040525081019062000c31919062002303565b62000c3d91906200231d565b90506000826001600160a01b03166318160ddd6040518163ffffffff1660e01b8152600401602060405180830381865afa15801562000c80573d6000803e3d6000fd5b505050506040513d601f19601f8201168201806040525081019062000ca6919062002303565b905080821462000cc957604051637ec3f15760e01b815260040160405180910390fd5b6001600160a01b03841660009081526001602052604081208054908290559081900362000d095760405163bb55fd2760e01b815260040160405180910390fd5b600062000d1e8266071afd498d00006200150f565b9050600062000d358366038d7ea4c680006200150f565b9050600062000d4c846601c6bf526340006200150f565b9050600062000d648262000d608587890382565b0390565b905062000d9b6001600160a01b037f0000000000000000000000000000000000000000000000000000000000000000168562001543565b62000dbb8362000dab8b620012cb565b6001600160a01b03169062001543565b62000dc7338362001543565b6040516340c10f1960e01b8152306004820152602481018790526001600160a01b038916906340c10f1990604401600060405180830381600087803b15801562000e1057600080fd5b505af115801562000e25573d6000803e3d6000fd5b505060405163095ea7b360e01b81526001600160a01b037f00000000000000000000000000000000000000000000000000000000000000008116600483015260006024830181905293508b16915063095ea7b3906044016020604051808303816000875af115801562000e9c573d6000803e3d6000fd5b505050506040513d601f19601f8201168201806040525081019062000ec2919062002334565b60405163095ea7b360e01b81526001600160a01b037f00000000000000000000000000000000000000000000000000000000000000008116600483015260001960248301529192506000918b169063095ea7b3906044016020604051808303816000875af115801562000f39573d6000803e3d6000fd5b505050506040513d601f19601f8201168201806040525081019062000f5f919062002334565b905081801562000f6c5750805b62000fbd5760405162461bcd60e51b815260206004820152601760248201527f65787465726e616c2063616c6c287329206661696c6564000000000000000000604482015260640160405180910390fd5b6040516370a0823160e01b81523060048201526000906001600160a01b038c16906370a0823190602401602060405180830381865afa15801562001005573d6000803e3d6000fd5b505050506040513d601f19601f820116820180604052508101906200102b919062002303565b9050888110156200104f57604051631e9acf1760e31b815260040160405180910390fd5b8a6001600160a01b031663255ad8b76040518163ffffffff1660e01b8152600401600060405180830381600087803b1580156200108b57600080fd5b505af1158015620010a0573d6000803e3d6000fd5b505050507f00000000000000000000000000000000000000000000000000000000000000006001600160a01b031663f305d719858e8c8d893042613a98620010e9919062002358565b60405160e089901b6001600160e01b03191681526001600160a01b039687166004820152602481019590955260448501939093526064840191909152909216608482015260a481019190915260c40160606040518083038185885af115801562001157573d6000803e3d6000fd5b50505050506040513d601f19601f820116820180604052508101906200117e91906200236e565b50506040516001600160a01b038e1691507e8cf43997dc0b7db13e87de3035e97447ef388084b566c68fbdb97b8f50d54f90600090a250505050505050505050503868929eee149b4bd212685550565b3068929eee149b4bd212685403620011ee5763ab143c066000526004601cfd5b3068929eee149b4bd21268556001600160a01b03821660009081526020819052604081205490036200123357604051630cbdb7b360e41b815260040160405180910390fd5b34600003620012555760405163162908e360e11b815260040160405180910390fd5b6000806200126484346200158d565b91509150816000036200128a5760405163cd1c886760e01b815260040160405180910390fd5b82821015620012ac57604051638199f5f360e01b815260040160405180910390fd5b620012b984838362001807565b50503868929eee149b4bd21268555050565b6001600160a01b0380821660009081526002602052604081205490918291620012f59116620018e2565b90506000818060200190518101906200130f91906200239d565b51949350505050565b6001600160a01b03808216600090815260026020526040812054606092620013419116620018e2565b90506000818060200190518101906200135b91906200239d565b60200151949350505050565b3068929eee149b4bd212685403620013875763ab143c066000526004601cfd5b3068929eee149b4bd21268556001600160a01b0383166000908152602081905260408120549003620013cc57604051630cbdb7b360e41b815260040160405180910390fd5b81600003620013ee5760405163162908e360e11b815260040160405180910390fd5b60008060006200140086868662001910565b925092509250620014148684848462001bb5565b5050503868929eee149b4bd2126855505050565b60008062001436836200144b565b936001600160a01b0385163b15159350915050565b600062000b58823062001cd6565b6000620014696000848462001d30565b9392505050565b600081518060401b6bfe61000180600a3d393df3000161fffe8211840152600b8101601584016000f0915081620014af5763301164256000526004601cfd5b90915290565b620014bf62001db0565b6001600160a01b039190911660009081526020818152604091829020546001600160401b03808216855281841c811692850192909252608081901c9091169183019190915260c01c606082015290565b6000816000190483111562001533578115620015335763bac65e5b6000526004601cfd5b50670de0b6b3a764000091020490565b804710156200155a5763b12d13eb6000526004601cfd5b6000386000388486620186a0f16200158957816000526073600b5360ff6020536016600b82f062001589573838fd5b5050565b60008060008490506000816001600160a01b03166318160ddd6040518163ffffffff1660e01b8152600401602060405180830381865afa158015620015d6573d6000803e3d6000fd5b505050506040513d601f19601f82011682018060405250810190620015fc919062002303565b90506000620016756064620016716002866001600160a01b031663d5abeb016040518163ffffffff1660e01b8152600401602060405180830381865afa1580156200164b573d6000803e3d6000fd5b505050506040513d601f19601f8201168201806040525081019062001671919062002303565b0490565b9050826001600160a01b03166318160ddd6040518163ffffffff1660e01b8152600401602060405180830381865afa158015620016b6573d6000803e3d6000fd5b505050506040513d601f19601f82011682018060405250810190620016dc919062002303565b620017216002856001600160a01b031663d5abeb016040518163ffffffff1660e01b8152600401602060405180830381865afa1580156200164b573d6000803e3d6000fd5b03620017405760405163d05cb60960e01b815260040160405180910390fd5b6000818304820262001751565b0290565b90506000620017b28962000235620017a36002896001600160a01b031663d5abeb016040518163ffffffff1660e01b8152600401602060405180830381865afa1580156200164b573d6000803e3d6000fd5b670de0b6b3a764000086020490565b9050620017c881670de0b6b3a76400008a020490565b96506000620017dd8560018686040186020390565b905080881115620017ec578097505b620017f882896200150f565b96505050505050509250929050565b803411156200181f576200181f333483900362001543565b6001600160a01b03831660008181526001602052604080822080548501905580516340c10f1960e01b81523360048201526024810186905290516340c10f199260448084019391929182900301818387803b1580156200187e57600080fd5b505af115801562001893573d6000803e3d6000fd5b505060408051858152602081018590523393506001600160a01b03871692507f6faf93231a456e552dbc9961f58d9713ee4f2e69d15f1975b050ef0911053a7b910160405180910390a3505050565b60405164ffffffffff600019833b0116602181016000601f8401853c80825260408201810160405250919050565b6000806000808690506000620019666064620016716002856001600160a01b031663d5abeb016040518163ffffffff1660e01b8152600401602060405180830381865afa1580156200164b573d6000803e3d6000fd5b90506000826001600160a01b03166318160ddd6040518163ffffffff1660e01b8152600401602060405180830381865afa158015620019a9573d6000803e3d6000fd5b505050506040513d601f19601f82011682018060405250810190620019cf919062002303565b9050826001600160a01b03166318160ddd6040518163ffffffff1660e01b8152600401602060405180830381865afa15801562001a10573d6000803e3d6000fd5b505050506040513d601f19601f8201168201806040525081019062001a36919062002303565b62001a7b6002856001600160a01b031663d5abeb016040518163ffffffff1660e01b8152600401602060405180830381865afa1580156200164b573d6000803e3d6000fd5b0362001a9a5760405163d05cb60960e01b815260040160405180910390fd5b600062001ab3836200174d816200167160018762002469565b9050600062001b058b62000235620017a36002896001600160a01b031663d5abeb016040518163ffffffff1660e01b8152600401602060405180830381865afa1580156200164b573d6000803e3d6000fd5b9050818303808b1162001b19578a62001b1b565b805b985062001b29828a6200150f565b6001600160a01b038d1660009081526001602052604090205490985088111562001b6657604051631e9acf1760e31b815260040160405180910390fd5b62001b8262001b7d89660c6f3b40b6c0006200150f565b890390565b96508987101562001ba657604051638199f5f360e01b815260040160405180910390fd5b50505050505093509350939050565b600062001bca83660c6f3b40b6c0006200150f565b6001600160a01b0386811660009081526001602052604090208054869003905590915062001c1b907f0000000000000000000000000000000000000000000000000000000000000000168262001543565b62001c27338362001543565b604051632770a7eb60e21b8152336004820152602481018590526001600160a01b03861690639dc29fac90604401600060405180830381600087803b15801562001c7057600080fd5b505af115801562001c85573d6000803e3d6000fd5b505060408051878152602081018690523393506001600160a01b03891692507f697c42d55a5e1fed3f464ec6f38b32546a0bd368dc8068b065c67566d73f3290910160405180910390a35050505050565b60006040518260005260ff600b53836020527f21c35dbe1b344a2488cf3321d6ce542f8e9f305544ff09e4993a62319a497c1f6040526055600b20601452806040525061d694600052600160345350506017601e20919050565b60006f67363d3d37363d34f03d5260086018f3600052816010806000f58062001d615763301164256000526004601cfd5b8060145261d69460005260016034536017601e20915060008085516020870188855af1823b0262001d9a5763301164256000526004601cfd5b509392505050565b610f8e806200248083390190565b60405180608001604052806004906020820280368337509192915050565b60008083601f84011262001de157600080fd5b5081356001600160401b0381111562001df957600080fd5b60208301915083602082850101111562001e1257600080fd5b9250929050565b634e487b7160e01b600052604160045260246000fd5b604080519081016001600160401b038111828210171562001e545762001e5462001e19565b60405290565b604051601f8201601f191681016001600160401b038111828210171562001e855762001e8562001e19565b604052919050565b60006001600160401b0382111562001ea95762001ea962001e19565b50601f01601f191660200190565b600080600080600080600080610120898b03121562001ed557600080fd5b88356001600160401b038082111562001eed57600080fd5b62001efb8c838d0162001dce565b909a50985060208b013591508082111562001f1557600080fd5b62001f238c838d0162001dce565b909850965060408b0135955060e08b0191508b82111562001f4357600080fd5b60608b019450903592506101008a0135908082111562001f6257600080fd5b508901601f81018b1362001f7557600080fd5b803562001f8c62001f868262001e8d565b62001e5a565b8181528c602083850101111562001fa257600080fd5b816020840160208301376000602083830101528093505050509295985092959890939650565b6001600160a01b038116811462001fde57600080fd5b50565b60006020828403121562001ff457600080fd5b8135620014698162001fc8565b600080604083850312156200201557600080fd5b8235620020228162001fc8565b946020939093013593505050565b60005b838110156200204d57818101518382015260200162002033565b50506000910152565b600081518084526200207081602086016020860162002030565b601f01601f19169290920160200192915050565b60208152600062001469602083018462002056565b600080600060608486031215620020af57600080fd5b8335620020bc8162001fc8565b95602085013595506040909401359392505050565b600060208284031215620020e457600080fd5b5035919050565b634e487b7160e01b600052601260045260246000fd5b600082620021135762002113620020eb565b500690565b634e487b7160e01b600052603260045260246000fd5b80356001600160401b03811681146200214657600080fd5b919050565b6000602082840312156200215e57600080fd5b62001469826200212e565b81835281816020850137506000828201602090810191909152601f909101601f19169091010190565b60a081526000620021a860a08301898b62002169565b8281036020840152620021bd81888a62002169565b60ff969096166040840152505060608101929092526001600160a01b0316608090910152949350505050565b60008351620021fd81846020880162002030565b8351908301906200221381836020880162002030565b01949350505050565b602080825282516001600160a01b0316828201528201516040808301526000906200224b606084018262002056565b949350505050565b60e0815260006200226960e08301888a62002169565b6020838203818501526200227f82888a62002169565b92508560408501526060840191508460005b6004811015620022c2576001600160401b03620022ae836200212e565b168452928201929082019060010162002291565b50505050979650505050505050565b634e487b7160e01b600052601160045260246000fd5b600060018201620022fc57620022fc620022d1565b5060010190565b6000602082840312156200231657600080fd5b5051919050565b6000826200232f576200232f620020eb565b500490565b6000602082840312156200234757600080fd5b815180151581146200146957600080fd5b8082018082111562000b585762000b58620022d1565b6000806000606084860312156200238457600080fd5b8351925060208401519150604084015190509250925092565b60006020808385031215620023b157600080fd5b82516001600160401b0380821115620023c957600080fd5b9084019060408287031215620023de57600080fd5b620023e862001e2f565b8251620023f58162001fc8565b815282840151828111156200240957600080fd5b80840193505086601f8401126200241f57600080fd5b825191506200243262001f868362001e8d565b82815287858486010111156200244757600080fd5b620024588386830187870162002030565b938101939093525090949350505050565b8181038181111562000b585762000b58620022d156fe60e06040523480156200001157600080fd5b5060405162000f8e38038062000f8e833981016040819052620000349162000184565b6001600160a01b038116620000815760405162461bcd60e51b815260206004820152600f60248201526e6e6f207a65726f206164647265737360881b604482015260640160405180910390fd5b60006200008f8682620002c3565b5060016200009e8582620002c3565b5060ff90921660a05260c0526001600160a01b0316608052506200038f9050565b634e487b7160e01b600052604160045260246000fd5b600082601f830112620000e757600080fd5b81516001600160401b0380821115620001045762000104620000bf565b604051601f8301601f19908116603f011681019082821181831017156200012f576200012f620000bf565b816040528381526020925086838588010111156200014c57600080fd5b600091505b8382101562000170578582018301518183018401529082019062000151565b600093810190920192909252949350505050565b600080600080600060a086880312156200019d57600080fd5b85516001600160401b0380821115620001b557600080fd5b620001c389838a01620000d5565b96506020880151915080821115620001da57600080fd5b50620001e988828901620000d5565b945050604086015160ff811681146200020157600080fd5b6060870151608088015191945092506001600160a01b03811681146200022657600080fd5b809150509295509295909350565b600181811c908216806200024957607f821691505b6020821081036200026a57634e487b7160e01b600052602260045260246000fd5b50919050565b601f821115620002be57600081815260208120601f850160051c81016020861015620002995750805b601f850160051c820191505b81811015620002ba57828155600101620002a5565b5050505b505050565b81516001600160401b03811115620002df57620002df620000bf565b620002f781620002f0845462000234565b8462000270565b602080601f8311600181146200032f5760008415620003165750858301515b600019600386901b1c1916600185901b178555620002ba565b600085815260208120601f198616915b8281101562000360578886015182559484019460019091019084016200033f565b50858210156200037f5787850151600019600388901b60f8161c191681555b5050505050600190811b01905550565b60805160a05160c051610bba620003d460003960006102bd0152600061019a01526000818161026b015281816104ad0152818161058101526105e60152610bba6000f3fe608060405234801561001057600080fd5b50600436106101165760003560e01c80637968b7e2116100a2578063a9059cbb11610071578063a9059cbb14610253578063c45a015514610266578063d505accf146102a5578063d5abeb01146102b8578063dd62ed3e146102df57600080fd5b80637968b7e2146102055780637ecebe001461021257806395d89b41146102385780639dc29fac1461024057600080fd5b8063255ad8b7116100e9578063255ad8b714610189578063313ce567146101935780633644e515146101c457806340c10f19146101cc57806370a08231146101df57600080fd5b806306fdde031461011b578063095ea7b31461013957806318160ddd1461015c57806323b872dd14610176575b600080fd5b610123610308565b6040516101309190610992565b60405180910390f35b61014c6101473660046109fc565b61039a565b6040519015158152602001610130565b6805345cdf77eb68f44c545b604051908152602001610130565b61014c610184366004610a26565b6103ed565b6101916104a2565b005b60405160ff7f0000000000000000000000000000000000000000000000000000000000000000168152602001610130565b6101686104f9565b6101916101da3660046109fc565b610576565b6101686101ed366004610a62565b6387a211a2600c908152600091909152602090205490565b60025461014c9060ff1681565b610168610220366004610a62565b6338377508600c908152600091909152602090205490565b6101236105cc565b61019161024e3660046109fc565b6105db565b61014c6102613660046109fc565b61062d565b61028d7f000000000000000000000000000000000000000000000000000000000000000081565b6040516001600160a01b039091168152602001610130565b6101916102b3366004610a84565b6106a1565b6101687f000000000000000000000000000000000000000000000000000000000000000081565b6101686102ed366004610af7565b602052637f5e9f20600c908152600091909152603490205490565b60606000805461031790610b2a565b80601f016020809104026020016040519081016040528092919081815260200182805461034390610b2a565b80156103905780601f1061036557610100808354040283529160200191610390565b820191906000526020600020905b81548152906001019060200180831161037357829003601f168201915b5050505050905090565b600082602052637f5e9f20600c5233600052816034600c205581600052602c5160601c337f8c5be1e5ebec7d5bd14f71427d1e84f3dd0314c0f7b2291e5b200ac8c7c3b92560206000a350600192915050565b60006103fa84848461082c565b8360601b33602052637f5e9f208117600c526034600c2080548019156104365780851115610430576313be252b6000526004601cfd5b84810382555b50506387a211a28117600c526020600c2080548085111561045f5763f4d678b86000526004601cfd5b84810382555050836000526020600c208381540181555082602052600c5160601c8160601c600080516020610b65833981519152602080a3505060019392505050565b336001600160a01b037f000000000000000000000000000000000000000000000000000000000000000016146104ea576040516282b42960e81b815260040160405180910390fd5b6002805460ff19166001179055565b600080610504610308565b805190602001209050604080517f8b73c3c69bb8fe3d512ecc4cf759cc79239f7b179b0ffacaa9a75d522b39400f815260208101929092527fc89efdaa54c0f20c7adf612882df0950f5a951637e0307cdcb4c672f298b8bc69082015246606082015230608082015260a09020919050565b336001600160a01b037f000000000000000000000000000000000000000000000000000000000000000016146105be576040516282b42960e81b815260040160405180910390fd5b6105c882826108a8565b5050565b60606001805461031790610b2a565b336001600160a01b037f00000000000000000000000000000000000000000000000000000000000000001614610623576040516282b42960e81b815260040160405180910390fd5b6105c88282610921565b600061063a33848461082c565b6387a211a2600c52336000526020600c208054808411156106635763f4d678b86000526004601cfd5b83810382555050826000526020600c208281540181555081602052600c5160601c33600080516020610b65833981519152602080a350600192915050565b60006106ab610308565b8051906020012090507fc89efdaa54c0f20c7adf612882df0950f5a951637e0307cdcb4c672f298b8bc6428610156106eb57631a15a3cc6000526004601cfd5b6040518960601b60601c99508860601b60601c985065383775081901600e52896000526020600c2080547f8b73c3c69bb8fe3d512ecc4cf759cc79239f7b179b0ffacaa9a75d522b39400f835284602084015283604084015246606084015230608084015260a08320602e527f6e71edae12b1b97f4d1f60370fef10105fa2faae0126114a169c64845d6126c983528b60208401528a60408401528960608401528060808401528860a084015260c08320604e526042602c206000528760ff1660205286604052856060526020806080600060015afa8c3d51146107d75763ddafbaef6000526004601cfd5b0190556303faf4f960a51b89176040526034602c20889055888a7f8c5be1e5ebec7d5bd14f71427d1e84f3dd0314c0f7b2291e5b200ac8c7c3b925602060608501a36040525050600060605250505050505050565b60025460ff1615801561084757506001600160a01b03831615155b801561085b57506001600160a01b03821615155b801561087057506001600160a01b0383163014155b801561088557506001600160a01b0382163014155b156108a3576040516336e278fd60e21b815260040160405180910390fd5b505050565b6108b46000838361082c565b6805345cdf77eb68f44c54818101818110156108d85763e5cfe9576000526004601cfd5b806805345cdf77eb68f44c5550506387a211a2600c52816000526020600c208181540181555080602052600c5160601c6000600080516020610b65833981519152602080a35050565b61092d8260008361082c565b6387a211a2600c52816000526020600c208054808311156109565763f4d678b86000526004601cfd5b82900390556805345cdf77eb68f44c8054829003905560008181526001600160a01b038316600080516020610b65833981519152602083a35050565b600060208083528351808285015260005b818110156109bf578581018301518582016040015282016109a3565b506000604082860101526040601f19601f8301168501019250505092915050565b80356001600160a01b03811681146109f757600080fd5b919050565b60008060408385031215610a0f57600080fd5b610a18836109e0565b946020939093013593505050565b600080600060608486031215610a3b57600080fd5b610a44846109e0565b9250610a52602085016109e0565b9150604084013590509250925092565b600060208284031215610a7457600080fd5b610a7d826109e0565b9392505050565b600080600080600080600060e0888a031215610a9f57600080fd5b610aa8886109e0565b9650610ab6602089016109e0565b95506040880135945060608801359350608088013560ff81168114610ada57600080fd5b9699959850939692959460a0840135945060c09093013592915050565b60008060408385031215610b0a57600080fd5b610b13836109e0565b9150610b21602084016109e0565b90509250929050565b600181811c90821680610b3e57607f821691505b602082108103610b5e57634e487b7160e01b600052602260045260246000fd5b5091905056feddf252ad1be2c89b69c2b068fc378daa952ba7f163c4a11628f55a4df523b3efa26469706673582212208e804d464d1b03f01a2b06379bd6feedcab14d5fabb720ae51e4a2765bb8a82364736f6c63430008110033a2646970667358221220327b0bd8f343fe95d7bc47a654df44a4268cedb59e633931dddb24dabb8e66f364736f6c63430008110033","linkReferences":{}},"methodIdentifiers":{"BASIS_POINTS()":"e1f1c4a7","BURN_FEE()":"480df058","CALLER_FEE()":"64a4f078","CREATOR_FEE()":"1a7dfa9f","PROTOCOL_FEE()":"0b4501fd","burn(address,uint256,uint256)":"f5298aca","calculatePrice(address,uint256)":"2f7306b8","collectedETH(address)":"244c9354","createToken(string,string,uint256,uint64[4],bytes32,bytes)":"1bbbe217","createUniswapMarket(address)":"3d88f257","meta(address)":"e021deff","mint(address,uint256)":"40c10f19","pointsMap(address)":"63e8fe6c","predictTokenAddress(bytes32)":"ffb623df","protocolWallet()":"06d6e63f","readTokenCreator(address)":"aa780f6e","readTokenMetadata(address)":"dd7daad9","uniswapRouter()":"735de9f7"},"id":27}