{"abi":[{"type":"constructor","inputs":[{"name":"tokenName","type":"string","internalType":"string"},{"name":"tokenSymbol","type":"string","internalType":"string"},{"name":"tokenDecimals","type":"uint8","internalType":"uint8"},{"name":"_maxSupply","type":"uint256","internalType":"uint256"},{"name":"_factory","type":"address","internalType":"address"}],"stateMutability":"nonpayable"},{"type":"function","name":"DOMAIN_SEPARATOR","inputs":[],"outputs":[{"name":"result","type":"bytes32","internalType":"bytes32"}],"stateMutability":"view"},{"type":"function","name":"allowance","inputs":[{"name":"owner","type":"address","internalType":"address"},{"name":"spender","type":"address","internalType":"address"}],"outputs":[{"name":"result","type":"uint256","internalType":"uint256"}],"stateMutability":"view"},{"type":"function","name":"approve","inputs":[{"name":"spender","type":"address","internalType":"address"},{"name":"amount","type":"uint256","internalType":"uint256"}],"outputs":[{"name":"","type":"bool","internalType":"bool"}],"stateMutability":"nonpayable"},{"type":"function","name":"balanceOf","inputs":[{"name":"owner","type":"address","internalType":"address"}],"outputs":[{"name":"result","type":"uint256","internalType":"uint256"}],"stateMutability":"view"},{"type":"function","name":"burn","inputs":[{"name":"from","type":"address","internalType":"address"},{"name":"amount","type":"uint256","internalType":"uint256"}],"outputs":[],"stateMutability":"nonpayable"},{"type":"function","name":"decimals","inputs":[],"outputs":[{"name":"","type":"uint8","internalType":"uint8"}],"stateMutability":"view"},{"type":"function","name":"factory","inputs":[],"outputs":[{"name":"","type":"address","internalType":"address"}],"stateMutability":"view"},{"type":"function","name":"maxSupply","inputs":[],"outputs":[{"name":"","type":"uint256","internalType":"uint256"}],"stateMutability":"view"},{"type":"function","name":"mint","inputs":[{"name":"to","type":"address","internalType":"address"},{"name":"amount","type":"uint256","internalType":"uint256"}],"outputs":[],"stateMutability":"nonpayable"},{"type":"function","name":"name","inputs":[],"outputs":[{"name":"","type":"string","internalType":"string"}],"stateMutability":"view"},{"type":"function","name":"nonces","inputs":[{"name":"owner","type":"address","internalType":"address"}],"outputs":[{"name":"result","type":"uint256","internalType":"uint256"}],"stateMutability":"view"},{"type":"function","name":"permit","inputs":[{"name":"owner","type":"address","internalType":"address"},{"name":"spender","type":"address","internalType":"address"},{"name":"value","type":"uint256","internalType":"uint256"},{"name":"deadline","type":"uint256","internalType":"uint256"},{"name":"v","type":"uint8","internalType":"uint8"},{"name":"r","type":"bytes32","internalType":"bytes32"},{"name":"s","type":"bytes32","internalType":"bytes32"}],"outputs":[],"stateMutability":"nonpayable"},{"type":"function","name":"setTradingUnlocked","inputs":[],"outputs":[],"stateMutability":"nonpayable"},{"type":"function","name":"symbol","inputs":[],"outputs":[{"name":"","type":"string","internalType":"string"}],"stateMutability":"view"},{"type":"function","name":"totalSupply","inputs":[],"outputs":[{"name":"result","type":"uint256","internalType":"uint256"}],"stateMutability":"view"},{"type":"function","name":"tradingUnlocked","inputs":[],"outputs":[{"name":"","type":"bool","internalType":"bool"}],"stateMutability":"view"},{"type":"function","name":"transfer","inputs":[{"name":"to","type":"address","internalType":"address"},{"name":"amount","type":"uint256","internalType":"uint256"}],"outputs":[{"name":"","type":"bool","internalType":"bool"}],"stateMutability":"nonpayable"},{"type":"function","name":"transferFrom","inputs":[{"name":"from","type":"address","internalType":"address"},{"name":"to","type":"address","internalType":"address"},{"name":"amount","type":"uint256","internalType":"uint256"}],"outputs":[{"name":"","type":"bool","internalType":"bool"}],"stateMutability":"nonpayable"},{"type":"event","name":"Approval","inputs":[{"name":"owner","type":"address","indexed":true,"internalType":"address"},{"name":"spender","type":"address","indexed":true,"internalType":"address"},{"name":"amount","type":"uint256","indexed":false,"internalType":"uint256"}],"anonymous":false},{"type":"event","name":"Transfer","inputs":[{"name":"from","type":"address","indexed":true,"internalType":"address"},{"name":"to","type":"address","indexed":true,"internalType":"address"},{"name":"amount","type":"uint256","indexed":false,"internalType":"uint256"}],"anonymous":false},{"type":"error","name":"AllowanceOverflow","inputs":[]},{"type":"error","name":"AllowanceUnderflow","inputs":[]},{"type":"error","name":"InsufficientAllowance","inputs":[]},{"type":"error","name":"InsufficientBalance","inputs":[]},{"type":"error","name":"InvalidPermit","inputs":[]},{"type":"error","name":"Permit2AllowanceIsFixedAtInfinity","inputs":[]},{"type":"error","name":"PermitExpired","inputs":[]},{"type":"error","name":"TotalSupplyOverflow","inputs":[]},{"type":"error","name":"TransfersLocked","inputs":[]},{"type":"error","name":"Unauthorized","inputs":[]}],"bytecode":{"object":"0x60e060405234801561001057600080fd5b50604051610f14380380610f1483398101604081905261002f91610121565b600061003b8682610257565b5060016100488582610257565b5060ff90921660a05260c0526001600160a01b0316608052506103159050565b634e487b7160e01b600052604160045260246000fd5b600082601f83011261008f57600080fd5b81516001600160401b038111156100a8576100a8610068565b604051601f8201601f19908116603f011681016001600160401b03811182821017156100d6576100d6610068565b6040528181528382016020018510156100ee57600080fd5b60005b8281101561010d576020818601810151838301820152016100f1565b506000918101602001919091529392505050565b600080600080600060a0868803121561013957600080fd5b85516001600160401b0381111561014f57600080fd5b61015b8882890161007e565b602088015190965090506001600160401b0381111561017957600080fd5b6101858882890161007e565b945050604086015160ff8116811461019c57600080fd5b6060870151608088015191945092506001600160a01b03811681146101c057600080fd5b809150509295509295909350565b600181811c908216806101e257607f821691505b60208210810361020257634e487b7160e01b600052602260045260246000fd5b50919050565b601f82111561025257806000526020600020601f840160051c8101602085101561022f5750805b601f840160051c820191505b8181101561024f576000815560010161023b565b50505b505050565b81516001600160401b0381111561027057610270610068565b6102848161027e84546101ce565b84610208565b6020601f8211600181146102b857600083156102a05750848201515b600019600385901b1c1916600184901b17845561024f565b600084815260208120601f198516915b828110156102e857878501518255602094850194600190920191016102c8565b50848210156103065786840151600019600387901b60f8161c191681555b50505050600190811b01905550565b60805160a05160c051610bbb61035960003960006102bd0152600061019a01526000818161026b015281816104ad0152818161058101526105e60152610bbb6000f3fe608060405234801561001057600080fd5b50600436106101165760003560e01c80637968b7e2116100a2578063a9059cbb11610071578063a9059cbb14610253578063c45a015514610266578063d505accf146102a5578063d5abeb01146102b8578063dd62ed3e146102df57600080fd5b80637968b7e2146102055780637ecebe001461021257806395d89b41146102385780639dc29fac1461024057600080fd5b8063255ad8b7116100e9578063255ad8b714610189578063313ce567146101935780633644e515146101c457806340c10f19146101cc57806370a08231146101df57600080fd5b806306fdde031461011b578063095ea7b31461013957806318160ddd1461015c57806323b872dd14610176575b600080fd5b610123610308565b6040516101309190610992565b60405180910390f35b61014c6101473660046109fc565b61039a565b6040519015158152602001610130565b6805345cdf77eb68f44c545b604051908152602001610130565b61014c610184366004610a26565b6103ed565b6101916104a2565b005b60405160ff7f0000000000000000000000000000000000000000000000000000000000000000168152602001610130565b6101686104f9565b6101916101da3660046109fc565b610576565b6101686101ed366004610a63565b6387a211a2600c908152600091909152602090205490565b60025461014c9060ff1681565b610168610220366004610a63565b6338377508600c908152600091909152602090205490565b6101236105cc565b61019161024e3660046109fc565b6105db565b61014c6102613660046109fc565b61062d565b61028d7f000000000000000000000000000000000000000000000000000000000000000081565b6040516001600160a01b039091168152602001610130565b6101916102b3366004610a85565b6106a1565b6101687f000000000000000000000000000000000000000000000000000000000000000081565b6101686102ed366004610af8565b602052637f5e9f20600c908152600091909152603490205490565b60606000805461031790610b2b565b80601f016020809104026020016040519081016040528092919081815260200182805461034390610b2b565b80156103905780601f1061036557610100808354040283529160200191610390565b820191906000526020600020905b81548152906001019060200180831161037357829003601f168201915b5050505050905090565b600082602052637f5e9f20600c5233600052816034600c205581600052602c5160601c337f8c5be1e5ebec7d5bd14f71427d1e84f3dd0314c0f7b2291e5b200ac8c7c3b92560206000a350600192915050565b60006103fa84848461082c565b8360601b33602052637f5e9f208117600c526034600c2080548019156104365780851115610430576313be252b6000526004601cfd5b84810382555b50506387a211a28117600c526020600c2080548085111561045f5763f4d678b86000526004601cfd5b84810382555050836000526020600c208381540181555082602052600c5160601c8160601c600080516020610b66833981519152602080a3505060019392505050565b336001600160a01b037f000000000000000000000000000000000000000000000000000000000000000016146104ea576040516282b42960e81b815260040160405180910390fd5b6002805460ff19166001179055565b600080610504610308565b805190602001209050604080517f8b73c3c69bb8fe3d512ecc4cf759cc79239f7b179b0ffacaa9a75d522b39400f815260208101929092527fc89efdaa54c0f20c7adf612882df0950f5a951637e0307cdcb4c672f298b8bc69082015246606082015230608082015260a09020919050565b336001600160a01b037f000000000000000000000000000000000000000000000000000000000000000016146105be576040516282b42960e81b815260040160405180910390fd5b6105c882826108a8565b5050565b60606001805461031790610b2b565b336001600160a01b037f00000000000000000000000000000000000000000000000000000000000000001614610623576040516282b42960e81b815260040160405180910390fd5b6105c88282610921565b600061063a33848461082c565b6387a211a2600c52336000526020600c208054808411156106635763f4d678b86000526004601cfd5b83810382555050826000526020600c208281540181555081602052600c5160601c33600080516020610b66833981519152602080a350600192915050565b60006106ab610308565b8051906020012090507fc89efdaa54c0f20c7adf612882df0950f5a951637e0307cdcb4c672f298b8bc6428610156106eb57631a15a3cc6000526004601cfd5b6040518960601b60601c99508860601b60601c985065383775081901600e52896000526020600c2080547f8b73c3c69bb8fe3d512ecc4cf759cc79239f7b179b0ffacaa9a75d522b39400f835284602084015283604084015246606084015230608084015260a08320602e527f6e71edae12b1b97f4d1f60370fef10105fa2faae0126114a169c64845d6126c983528b60208401528a60408401528960608401528060808401528860a084015260c08320604e526042602c206000528760ff1660205286604052856060526020806080600060015afa8c3d51146107d75763ddafbaef6000526004601cfd5b0190556303faf4f960a51b89176040526034602c20889055888a7f8c5be1e5ebec7d5bd14f71427d1e84f3dd0314c0f7b2291e5b200ac8c7c3b925602060608501a36040525050600060605250505050505050565b60025460ff1615801561084757506001600160a01b03831615155b801561085b57506001600160a01b03821615155b801561087057506001600160a01b0383163014155b801561088557506001600160a01b0382163014155b156108a3576040516336e278fd60e21b815260040160405180910390fd5b505050565b6108b46000838361082c565b6805345cdf77eb68f44c54818101818110156108d85763e5cfe9576000526004601cfd5b806805345cdf77eb68f44c5550506387a211a2600c52816000526020600c208181540181555080602052600c5160601c6000600080516020610b66833981519152602080a35050565b61092d8260008361082c565b6387a211a2600c52816000526020600c208054808311156109565763f4d678b86000526004601cfd5b82900390556805345cdf77eb68f44c8054829003905560008181526001600160a01b038316600080516020610b66833981519152602083a35050565b602081526000825180602084015260005b818110156109c057602081860181015160408684010152016109a3565b506000604082850101526040601f19601f83011684010191505092915050565b80356001600160a01b03811681146109f757600080fd5b919050565b60008060408385031215610a0f57600080fd5b610a18836109e0565b946020939093013593505050565b600080600060608486031215610a3b57600080fd5b610a44846109e0565b9250610a52602085016109e0565b929592945050506040919091013590565b600060208284031215610a7557600080fd5b610a7e826109e0565b9392505050565b600080600080600080600060e0888a031215610aa057600080fd5b610aa9886109e0565b9650610ab7602089016109e0565b95506040880135945060608801359350608088013560ff81168114610adb57600080fd5b9699959850939692959460a0840135945060c09093013592915050565b60008060408385031215610b0b57600080fd5b610b14836109e0565b9150610b22602084016109e0565b90509250929050565b600181811c90821680610b3f57607f821691505b602082108103610b5f57634e487b7160e01b600052602260045260246000fd5b5091905056feddf252ad1be2c89b69c2b068fc378daa952ba7f163c4a11628f55a4df523b3efa2646970667358221220fafef187f0a3a01be34b37064244be1b9ad4566e41d7ec759d9b988910edcfc164736f6c634300081a0033","linkReferences":{}},"methodIdentifiers":{"DOMAIN_SEPARATOR()":"3644e515","allowance(address,address)":"dd62ed3e","approve(address,uint256)":"095ea7b3","balanceOf(address)":"70a08231","burn(address,uint256)":"9dc29fac","decimals()":"313ce567","factory()":"c45a0155","maxSupply()":"d5abeb01","mint(address,uint256)":"40c10f19","name()":"06fdde03","nonces(address)":"7ecebe00","permit(address,address,uint256,uint256,uint8,bytes32,bytes32)":"d505accf","setTradingUnlocked()":"255ad8b7","symbol()":"95d89b41","totalSupply()":"18160ddd","tradingUnlocked()":"7968b7e2","transfer(address,uint256)":"a9059cbb","transferFrom(address,address,uint256)":"23b872dd"},"id":24}